{
	"wtf-solidity/ValueType.sol": {
		"ValueType": {
			"abi": [
				{
					"inputs": [],
					"name": "_address",
					"outputs": [
						{
							"internalType": "address",
							"name": "",
							"type": "address"
						}
					],
					"stateMutability": "view",
					"type": "function"
				},
				{
					"inputs": [],
					"name": "_address1",
					"outputs": [
						{
							"internalType": "address payable",
							"name": "",
							"type": "address"
						}
					],
					"stateMutability": "view",
					"type": "function"
				},
				{
					"inputs": [],
					"name": "_bool",
					"outputs": [
						{
							"internalType": "bool",
							"name": "",
							"type": "bool"
						}
					],
					"stateMutability": "view",
					"type": "function"
				},
				{
					"inputs": [],
					"name": "_bool1",
					"outputs": [
						{
							"internalType": "bool",
							"name": "",
							"type": "bool"
						}
					],
					"stateMutability": "view",
					"type": "function"
				},
				{
					"inputs": [],
					"name": "_bool2",
					"outputs": [
						{
							"internalType": "bool",
							"name": "",
							"type": "bool"
						}
					],
					"stateMutability": "view",
					"type": "function"
				},
				{
					"inputs": [],
					"name": "_byte32",
					"outputs": [
						{
							"internalType": "bytes32",
							"name": "",
							"type": "bytes32"
						}
					],
					"stateMutability": "view",
					"type": "function"
				},
				{
					"inputs": [],
					"name": "_int1",
					"outputs": [
						{
							"internalType": "int256",
							"name": "",
							"type": "int256"
						}
					],
					"stateMutability": "view",
					"type": "function"
				},
				{
					"inputs": [],
					"name": "_int2",
					"outputs": [
						{
							"internalType": "int256",
							"name": "",
							"type": "int256"
						}
					],
					"stateMutability": "view",
					"type": "function"
				},
				{
					"inputs": [],
					"name": "_int3",
					"outputs": [
						{
							"internalType": "int256",
							"name": "",
							"type": "int256"
						}
					],
					"stateMutability": "view",
					"type": "function"
				},
				{
					"inputs": [],
					"name": "_int4",
					"outputs": [
						{
							"internalType": "int256",
							"name": "",
							"type": "int256"
						}
					],
					"stateMutability": "view",
					"type": "function"
				},
				{
					"inputs": [],
					"name": "balance",
					"outputs": [
						{
							"internalType": "uint256",
							"name": "",
							"type": "uint256"
						}
					],
					"stateMutability": "view",
					"type": "function"
				},
				{
					"inputs": [],
					"name": "enumToUint",
					"outputs": [
						{
							"internalType": "uint256",
							"name": "",
							"type": "uint256"
						}
					],
					"stateMutability": "view",
					"type": "function"
				}
			],
			"devdoc": {
				"kind": "dev",
				"methods": {},
				"version": 1
			},
			"evm": {
				"assembly": "    /* \"wtf-solidity/ValueType.sol\":57:907  contract ValueType {... */\n  mstore(0x40, 0x80)\n    /* \"wtf-solidity/ValueType.sol\":119:123  true */\n  0x01\n    /* \"wtf-solidity/ValueType.sol\":99:123  bool public _bool = true */\n  0x00\n  dup1\n  0x0100\n  exp\n  dup2\n  sload\n  dup2\n  0xff\n  mul\n  not\n  and\n  swap1\n  dup4\n  iszero\n  iszero\n  mul\n  or\n  swap1\n  sstore\n  pop\n    /* \"wtf-solidity/ValueType.sol\":172:173  1 */\n  0x01\n    /* \"wtf-solidity/ValueType.sol\":170:171  1 */\n  dup1\n    /* \"wtf-solidity/ValueType.sol\":170:173  1>1 */\n  gt\n    /* \"wtf-solidity/ValueType.sol\":149:173  bool public _bool1 = 1>1 */\n  0x00\n  exp(0x0100, 0x01)\n  dup2\n  sload\n  dup2\n  0xff\n  mul\n  not\n  and\n  swap1\n  dup4\n  iszero\n  iszero\n  mul\n  or\n  swap1\n  sstore\n  pop\n    /* \"wtf-solidity/ValueType.sol\":200:204  true */\n  0x01\n    /* \"wtf-solidity/ValueType.sol\":200:213  true && false */\n  dup1\n  iszero\n  tag_1\n  jumpi\n  pop\n    /* \"wtf-solidity/ValueType.sol\":208:213  false */\n  0x00\n    /* \"wtf-solidity/ValueType.sol\":200:213  true && false */\ntag_1:\n    /* \"wtf-solidity/ValueType.sol\":179:213  bool public _bool2 = true && false */\n  0x00\n  exp(0x0100, 0x02)\n  dup2\n  sload\n  dup2\n  0xff\n  mul\n  not\n  and\n  swap1\n  dup4\n  iszero\n  iszero\n  mul\n  or\n  swap1\n  sstore\n  pop\n    /* \"wtf-solidity/ValueType.sol\":253:254  1 */\n  0x01\n    /* \"wtf-solidity/ValueType.sol\":234:254  int public _int1 = 1 */\n  dup1\n  sstore\n    /* \"wtf-solidity/ValueType.sol\":281:282  2 */\n  0x02\n    /* \"wtf-solidity/ValueType.sol\":260:282  int256 public _int2 =2 */\n  dup1\n  sstore\n    /* \"wtf-solidity/ValueType.sol\":327:330  1+1 */\n  0x02\n    /* \"wtf-solidity/ValueType.sol\":308:330  int public _int3 = 1+1 */\n  0x03\n  sstore\n    /* \"wtf-solidity/ValueType.sol\":358:361  7%2 */\n  0x01\n    /* \"wtf-solidity/ValueType.sol\":336:361  int256 public _int4 = 7%2 */\n  0x04\n  sstore\n    /* \"wtf-solidity/ValueType.sol\":407:449  0x7A58c0Be72BE218B41C608b7Fe7C5bB630736C71 */\n  0x7a58c0be72be218b41c608b7fe7c5bb630736c71\n    /* \"wtf-solidity/ValueType.sol\":381:449  address public _address = 0x7A58c0Be72BE218B41C608b7Fe7C5bB630736C71 */\n  0x05\n  exp(0x0100, 0x00)\n  dup2\n  sload\n  dup2\n  0xffffffffffffffffffffffffffffffffffffffff\n  mul\n  not\n  and\n  swap1\n  dup4\n  0xffffffffffffffffffffffffffffffffffffffff\n  and\n  mul\n  or\n  swap1\n  sstore\n  pop\n    /* \"wtf-solidity/ValueType.sol\":498:506  _address */\n  0x05\n  0x00\n  swap1\n  sload\n  swap1\n  0x0100\n  exp\n  swap1\n  div\n  0xffffffffffffffffffffffffffffffffffffffff\n  and\n    /* \"wtf-solidity/ValueType.sol\":455:507  address payable public _address1 = payable(_address) */\n  0x06\n  exp(0x0100, 0x00)\n  dup2\n  sload\n  dup2\n  0xffffffffffffffffffffffffffffffffffffffff\n  mul\n  not\n  and\n  swap1\n  dup4\n  0xffffffffffffffffffffffffffffffffffffffff\n  and\n  mul\n  or\n  swap1\n  sstore\n  pop\n    /* \"wtf-solidity/ValueType.sol\":566:575  _address1 */\n  0x06\n  0x00\n  swap1\n  sload\n  swap1\n  0x0100\n  exp\n  swap1\n  div\n  0xffffffffffffffffffffffffffffffffffffffff\n  and\n    /* \"wtf-solidity/ValueType.sol\":566:583  _address1.balance */\n  0xffffffffffffffffffffffffffffffffffffffff\n  and\n  balance\n    /* \"wtf-solidity/ValueType.sol\":541:583  uint256 public balance = _address1.balance */\n  0x07\n  sstore\n    /* \"wtf-solidity/ValueType.sol\":648:686  bytes32 public _byte32 = \"Hello World\" */\n  sstore(0x08, 0x48656c6c6f20576f726c64000000000000000000000000000000000000000000)\n    /* \"wtf-solidity/ValueType.sol\":760:770  STATE.Sale */\n  0x02\n    /* \"wtf-solidity/ValueType.sol\":745:770  STATE action = STATE.Sale */\n  0x09\n  exp(0x0100, 0x00)\n  dup2\n  sload\n  dup2\n  0xff\n  mul\n  not\n  and\n  swap1\n  dup4\n  0x02\n  dup2\n  gt\n  iszero\n  tag_2\n  jumpi\n  tag_3\n  tag_4\n  jump\t// in\ntag_3:\ntag_2:\n  mul\n  or\n  swap1\n  sstore\n  pop\n    /* \"wtf-solidity/ValueType.sol\":57:907  contract ValueType {... */\n  callvalue\n  dup1\n  iszero\n  tag_5\n  jumpi\n  0x00\n  dup1\n  revert\ntag_5:\n  pop\n  jump(tag_6)\n    /* \"#utility.yul\":7:187   */\ntag_4:\n    /* \"#utility.yul\":55:132   */\n  0x4e487b7100000000000000000000000000000000000000000000000000000000\n    /* \"#utility.yul\":52:53   */\n  0x00\n    /* \"#utility.yul\":45:133   */\n  mstore\n    /* \"#utility.yul\":152:156   */\n  0x21\n    /* \"#utility.yul\":149:150   */\n  0x04\n    /* \"#utility.yul\":142:157   */\n  mstore\n    /* \"#utility.yul\":176:180   */\n  0x24\n    /* \"#utility.yul\":173:174   */\n  0x00\n    /* \"#utility.yul\":166:181   */\n  revert\n    /* \"wtf-solidity/ValueType.sol\":57:907  contract ValueType {... */\ntag_6:\n  dataSize(sub_0)\n  dup1\n  dataOffset(sub_0)\n  0x00\n  codecopy\n  0x00\n  return\nstop\n\nsub_0: assembly {\n        /* \"wtf-solidity/ValueType.sol\":57:907  contract ValueType {... */\n      mstore(0x40, 0x80)\n      callvalue\n      dup1\n      iszero\n      tag_1\n      jumpi\n      0x00\n      dup1\n      revert\n    tag_1:\n      pop\n      jumpi(tag_2, lt(calldatasize, 0x04))\n      shr(0xe0, calldataload(0x00))\n      dup1\n      0x924b3d21\n      gt\n      tag_15\n      jumpi\n      dup1\n      0x924b3d21\n      eq\n      tag_9\n      jumpi\n      dup1\n      0x9e6ba9c2\n      eq\n      tag_10\n      jumpi\n      dup1\n      0x9eb7859a\n      eq\n      tag_11\n      jumpi\n      dup1\n      0xa2e7fe8a\n      eq\n      tag_12\n      jumpi\n      dup1\n      0xac729403\n      eq\n      tag_13\n      jumpi\n      dup1\n      0xb69ef8a8\n      eq\n      tag_14\n      jumpi\n      jump(tag_2)\n    tag_15:\n      dup1\n      0x01019958\n      eq\n      tag_3\n      jumpi\n      dup1\n      0x18bad217\n      eq\n      tag_4\n      jumpi\n      dup1\n      0x3c119e34\n      eq\n      tag_5\n      jumpi\n      dup1\n      0x3f346102\n      eq\n      tag_6\n      jumpi\n      dup1\n      0x53e95af9\n      eq\n      tag_7\n      jumpi\n      dup1\n      0x5e2aa7d3\n      eq\n      tag_8\n      jumpi\n    tag_2:\n      0x00\n      dup1\n      revert\n        /* \"wtf-solidity/ValueType.sol\":820:905  function enumToUint() external view returns(uint){... */\n    tag_3:\n      tag_16\n      tag_17\n      jump\t// in\n    tag_16:\n      mload(0x40)\n      tag_18\n      swap2\n      swap1\n      tag_19\n      jump\t// in\n    tag_18:\n      mload(0x40)\n      dup1\n      swap2\n      sub\n      swap1\n      return\n        /* \"wtf-solidity/ValueType.sol\":381:449  address public _address = 0x7A58c0Be72BE218B41C608b7Fe7C5bB630736C71 */\n    tag_4:\n      tag_20\n      tag_21\n      jump\t// in\n    tag_20:\n      mload(0x40)\n      tag_22\n      swap2\n      swap1\n      tag_23\n      jump\t// in\n    tag_22:\n      mload(0x40)\n      dup1\n      swap2\n      sub\n      swap1\n      return\n        /* \"wtf-solidity/ValueType.sol\":308:330  int public _int3 = 1+1 */\n    tag_5:\n      tag_24\n      tag_25\n      jump\t// in\n    tag_24:\n      mload(0x40)\n      tag_26\n      swap2\n      swap1\n      tag_27\n      jump\t// in\n    tag_26:\n      mload(0x40)\n      dup1\n      swap2\n      sub\n      swap1\n      return\n        /* \"wtf-solidity/ValueType.sol\":648:686  bytes32 public _byte32 = \"Hello World\" */\n    tag_6:\n      tag_28\n      tag_29\n      jump\t// in\n    tag_28:\n      mload(0x40)\n      tag_30\n      swap2\n      swap1\n      tag_31\n      jump\t// in\n    tag_30:\n      mload(0x40)\n      dup1\n      swap2\n      sub\n      swap1\n      return\n        /* \"wtf-solidity/ValueType.sol\":260:282  int256 public _int2 =2 */\n    tag_7:\n      tag_32\n      tag_33\n      jump\t// in\n    tag_32:\n      mload(0x40)\n      tag_34\n      swap2\n      swap1\n      tag_27\n      jump\t// in\n    tag_34:\n      mload(0x40)\n      dup1\n      swap2\n      sub\n      swap1\n      return\n        /* \"wtf-solidity/ValueType.sol\":336:361  int256 public _int4 = 7%2 */\n    tag_8:\n      tag_35\n      tag_36\n      jump\t// in\n    tag_35:\n      mload(0x40)\n      tag_37\n      swap2\n      swap1\n      tag_27\n      jump\t// in\n    tag_37:\n      mload(0x40)\n      dup1\n      swap2\n      sub\n      swap1\n      return\n        /* \"wtf-solidity/ValueType.sol\":149:173  bool public _bool1 = 1>1 */\n    tag_9:\n      tag_38\n      tag_39\n      jump\t// in\n    tag_38:\n      mload(0x40)\n      tag_40\n      swap2\n      swap1\n      tag_41\n      jump\t// in\n    tag_40:\n      mload(0x40)\n      dup1\n      swap2\n      sub\n      swap1\n      return\n        /* \"wtf-solidity/ValueType.sol\":99:123  bool public _bool = true */\n    tag_10:\n      tag_42\n      tag_43\n      jump\t// in\n    tag_42:\n      mload(0x40)\n      tag_44\n      swap2\n      swap1\n      tag_41\n      jump\t// in\n    tag_44:\n      mload(0x40)\n      dup1\n      swap2\n      sub\n      swap1\n      return\n        /* \"wtf-solidity/ValueType.sol\":234:254  int public _int1 = 1 */\n    tag_11:\n      tag_45\n      tag_46\n      jump\t// in\n    tag_45:\n      mload(0x40)\n      tag_47\n      swap2\n      swap1\n      tag_27\n      jump\t// in\n    tag_47:\n      mload(0x40)\n      dup1\n      swap2\n      sub\n      swap1\n      return\n        /* \"wtf-solidity/ValueType.sol\":179:213  bool public _bool2 = true && false */\n    tag_12:\n      tag_48\n      tag_49\n      jump\t// in\n    tag_48:\n      mload(0x40)\n      tag_50\n      swap2\n      swap1\n      tag_41\n      jump\t// in\n    tag_50:\n      mload(0x40)\n      dup1\n      swap2\n      sub\n      swap1\n      return\n        /* \"wtf-solidity/ValueType.sol\":455:507  address payable public _address1 = payable(_address) */\n    tag_13:\n      tag_51\n      tag_52\n      jump\t// in\n    tag_51:\n      mload(0x40)\n      tag_53\n      swap2\n      swap1\n      tag_54\n      jump\t// in\n    tag_53:\n      mload(0x40)\n      dup1\n      swap2\n      sub\n      swap1\n      return\n        /* \"wtf-solidity/ValueType.sol\":541:583  uint256 public balance = _address1.balance */\n    tag_14:\n      tag_55\n      tag_56\n      jump\t// in\n    tag_55:\n      mload(0x40)\n      tag_57\n      swap2\n      swap1\n      tag_19\n      jump\t// in\n    tag_57:\n      mload(0x40)\n      dup1\n      swap2\n      sub\n      swap1\n      return\n        /* \"wtf-solidity/ValueType.sol\":820:905  function enumToUint() external view returns(uint){... */\n    tag_17:\n        /* \"wtf-solidity/ValueType.sol\":864:868  uint */\n      0x00\n        /* \"wtf-solidity/ValueType.sol\":891:897  action */\n      0x09\n      0x00\n      swap1\n      sload\n      swap1\n      0x0100\n      exp\n      swap1\n      div\n      0xff\n      and\n        /* \"wtf-solidity/ValueType.sol\":886:898  uint(action) */\n      0x02\n      dup2\n      gt\n      iszero\n      tag_59\n      jumpi\n      tag_60\n      tag_61\n      jump\t// in\n    tag_60:\n    tag_59:\n        /* \"wtf-solidity/ValueType.sol\":879:898  return uint(action) */\n      swap1\n      pop\n        /* \"wtf-solidity/ValueType.sol\":820:905  function enumToUint() external view returns(uint){... */\n      swap1\n      jump\t// out\n        /* \"wtf-solidity/ValueType.sol\":381:449  address public _address = 0x7A58c0Be72BE218B41C608b7Fe7C5bB630736C71 */\n    tag_21:\n      0x05\n      0x00\n      swap1\n      sload\n      swap1\n      0x0100\n      exp\n      swap1\n      div\n      0xffffffffffffffffffffffffffffffffffffffff\n      and\n      dup2\n      jump\t// out\n        /* \"wtf-solidity/ValueType.sol\":308:330  int public _int3 = 1+1 */\n    tag_25:\n      sload(0x03)\n      dup2\n      jump\t// out\n        /* \"wtf-solidity/ValueType.sol\":648:686  bytes32 public _byte32 = \"Hello World\" */\n    tag_29:\n      sload(0x08)\n      dup2\n      jump\t// out\n        /* \"wtf-solidity/ValueType.sol\":260:282  int256 public _int2 =2 */\n    tag_33:\n      sload(0x02)\n      dup2\n      jump\t// out\n        /* \"wtf-solidity/ValueType.sol\":336:361  int256 public _int4 = 7%2 */\n    tag_36:\n      sload(0x04)\n      dup2\n      jump\t// out\n        /* \"wtf-solidity/ValueType.sol\":149:173  bool public _bool1 = 1>1 */\n    tag_39:\n      0x00\n      0x01\n      swap1\n      sload\n      swap1\n      0x0100\n      exp\n      swap1\n      div\n      0xff\n      and\n      dup2\n      jump\t// out\n        /* \"wtf-solidity/ValueType.sol\":99:123  bool public _bool = true */\n    tag_43:\n      0x00\n      dup1\n      sload\n      swap1\n      0x0100\n      exp\n      swap1\n      div\n      0xff\n      and\n      dup2\n      jump\t// out\n        /* \"wtf-solidity/ValueType.sol\":234:254  int public _int1 = 1 */\n    tag_46:\n      sload(0x01)\n      dup2\n      jump\t// out\n        /* \"wtf-solidity/ValueType.sol\":179:213  bool public _bool2 = true && false */\n    tag_49:\n      0x00\n      0x02\n      swap1\n      sload\n      swap1\n      0x0100\n      exp\n      swap1\n      div\n      0xff\n      and\n      dup2\n      jump\t// out\n        /* \"wtf-solidity/ValueType.sol\":455:507  address payable public _address1 = payable(_address) */\n    tag_52:\n      0x06\n      0x00\n      swap1\n      sload\n      swap1\n      0x0100\n      exp\n      swap1\n      div\n      0xffffffffffffffffffffffffffffffffffffffff\n      and\n      dup2\n      jump\t// out\n        /* \"wtf-solidity/ValueType.sol\":541:583  uint256 public balance = _address1.balance */\n    tag_56:\n      sload(0x07)\n      dup2\n      jump\t// out\n        /* \"#utility.yul\":7:84   */\n    tag_62:\n        /* \"#utility.yul\":44:51   */\n      0x00\n        /* \"#utility.yul\":73:78   */\n      dup2\n        /* \"#utility.yul\":62:78   */\n      swap1\n      pop\n        /* \"#utility.yul\":7:84   */\n      swap2\n      swap1\n      pop\n      jump\t// out\n        /* \"#utility.yul\":90:208   */\n    tag_63:\n        /* \"#utility.yul\":177:201   */\n      tag_78\n        /* \"#utility.yul\":195:200   */\n      dup2\n        /* \"#utility.yul\":177:201   */\n      tag_62\n      jump\t// in\n    tag_78:\n        /* \"#utility.yul\":172:175   */\n      dup3\n        /* \"#utility.yul\":165:202   */\n      mstore\n        /* \"#utility.yul\":90:208   */\n      pop\n      pop\n      jump\t// out\n        /* \"#utility.yul\":214:436   */\n    tag_19:\n        /* \"#utility.yul\":307:311   */\n      0x00\n        /* \"#utility.yul\":345:347   */\n      0x20\n        /* \"#utility.yul\":334:343   */\n      dup3\n        /* \"#utility.yul\":330:348   */\n      add\n        /* \"#utility.yul\":322:348   */\n      swap1\n      pop\n        /* \"#utility.yul\":358:429   */\n      tag_80\n        /* \"#utility.yul\":426:427   */\n      0x00\n        /* \"#utility.yul\":415:424   */\n      dup4\n        /* \"#utility.yul\":411:428   */\n      add\n        /* \"#utility.yul\":402:408   */\n      dup5\n        /* \"#utility.yul\":358:429   */\n      tag_63\n      jump\t// in\n    tag_80:\n        /* \"#utility.yul\":214:436   */\n      swap3\n      swap2\n      pop\n      pop\n      jump\t// out\n        /* \"#utility.yul\":442:568   */\n    tag_64:\n        /* \"#utility.yul\":479:486   */\n      0x00\n        /* \"#utility.yul\":519:561   */\n      0xffffffffffffffffffffffffffffffffffffffff\n        /* \"#utility.yul\":512:517   */\n      dup3\n        /* \"#utility.yul\":508:562   */\n      and\n        /* \"#utility.yul\":497:562   */\n      swap1\n      pop\n        /* \"#utility.yul\":442:568   */\n      swap2\n      swap1\n      pop\n      jump\t// out\n        /* \"#utility.yul\":574:670   */\n    tag_65:\n        /* \"#utility.yul\":611:618   */\n      0x00\n        /* \"#utility.yul\":640:664   */\n      tag_83\n        /* \"#utility.yul\":658:663   */\n      dup3\n        /* \"#utility.yul\":640:664   */\n      tag_64\n      jump\t// in\n    tag_83:\n        /* \"#utility.yul\":629:664   */\n      swap1\n      pop\n        /* \"#utility.yul\":574:670   */\n      swap2\n      swap1\n      pop\n      jump\t// out\n        /* \"#utility.yul\":676:794   */\n    tag_66:\n        /* \"#utility.yul\":763:787   */\n      tag_85\n        /* \"#utility.yul\":781:786   */\n      dup2\n        /* \"#utility.yul\":763:787   */\n      tag_65\n      jump\t// in\n    tag_85:\n        /* \"#utility.yul\":758:761   */\n      dup3\n        /* \"#utility.yul\":751:788   */\n      mstore\n        /* \"#utility.yul\":676:794   */\n      pop\n      pop\n      jump\t// out\n        /* \"#utility.yul\":800:1022   */\n    tag_23:\n        /* \"#utility.yul\":893:897   */\n      0x00\n        /* \"#utility.yul\":931:933   */\n      0x20\n        /* \"#utility.yul\":920:929   */\n      dup3\n        /* \"#utility.yul\":916:934   */\n      add\n        /* \"#utility.yul\":908:934   */\n      swap1\n      pop\n        /* \"#utility.yul\":944:1015   */\n      tag_87\n        /* \"#utility.yul\":1012:1013   */\n      0x00\n        /* \"#utility.yul\":1001:1010   */\n      dup4\n        /* \"#utility.yul\":997:1014   */\n      add\n        /* \"#utility.yul\":988:994   */\n      dup5\n        /* \"#utility.yul\":944:1015   */\n      tag_66\n      jump\t// in\n    tag_87:\n        /* \"#utility.yul\":800:1022   */\n      swap3\n      swap2\n      pop\n      pop\n      jump\t// out\n        /* \"#utility.yul\":1028:1104   */\n    tag_67:\n        /* \"#utility.yul\":1064:1071   */\n      0x00\n        /* \"#utility.yul\":1093:1098   */\n      dup2\n        /* \"#utility.yul\":1082:1098   */\n      swap1\n      pop\n        /* \"#utility.yul\":1028:1104   */\n      swap2\n      swap1\n      pop\n      jump\t// out\n        /* \"#utility.yul\":1110:1225   */\n    tag_68:\n        /* \"#utility.yul\":1195:1218   */\n      tag_90\n        /* \"#utility.yul\":1212:1217   */\n      dup2\n        /* \"#utility.yul\":1195:1218   */\n      tag_67\n      jump\t// in\n    tag_90:\n        /* \"#utility.yul\":1190:1193   */\n      dup3\n        /* \"#utility.yul\":1183:1219   */\n      mstore\n        /* \"#utility.yul\":1110:1225   */\n      pop\n      pop\n      jump\t// out\n        /* \"#utility.yul\":1231:1449   */\n    tag_27:\n        /* \"#utility.yul\":1322:1326   */\n      0x00\n        /* \"#utility.yul\":1360:1362   */\n      0x20\n        /* \"#utility.yul\":1349:1358   */\n      dup3\n        /* \"#utility.yul\":1345:1363   */\n      add\n        /* \"#utility.yul\":1337:1363   */\n      swap1\n      pop\n        /* \"#utility.yul\":1373:1442   */\n      tag_92\n        /* \"#utility.yul\":1439:1440   */\n      0x00\n        /* \"#utility.yul\":1428:1437   */\n      dup4\n        /* \"#utility.yul\":1424:1441   */\n      add\n        /* \"#utility.yul\":1415:1421   */\n      dup5\n        /* \"#utility.yul\":1373:1442   */\n      tag_68\n      jump\t// in\n    tag_92:\n        /* \"#utility.yul\":1231:1449   */\n      swap3\n      swap2\n      pop\n      pop\n      jump\t// out\n        /* \"#utility.yul\":1455:1532   */\n    tag_69:\n        /* \"#utility.yul\":1492:1499   */\n      0x00\n        /* \"#utility.yul\":1521:1526   */\n      dup2\n        /* \"#utility.yul\":1510:1526   */\n      swap1\n      pop\n        /* \"#utility.yul\":1455:1532   */\n      swap2\n      swap1\n      pop\n      jump\t// out\n        /* \"#utility.yul\":1538:1656   */\n    tag_70:\n        /* \"#utility.yul\":1625:1649   */\n      tag_95\n        /* \"#utility.yul\":1643:1648   */\n      dup2\n        /* \"#utility.yul\":1625:1649   */\n      tag_69\n      jump\t// in\n    tag_95:\n        /* \"#utility.yul\":1620:1623   */\n      dup3\n        /* \"#utility.yul\":1613:1650   */\n      mstore\n        /* \"#utility.yul\":1538:1656   */\n      pop\n      pop\n      jump\t// out\n        /* \"#utility.yul\":1662:1884   */\n    tag_31:\n        /* \"#utility.yul\":1755:1759   */\n      0x00\n        /* \"#utility.yul\":1793:1795   */\n      0x20\n        /* \"#utility.yul\":1782:1791   */\n      dup3\n        /* \"#utility.yul\":1778:1796   */\n      add\n        /* \"#utility.yul\":1770:1796   */\n      swap1\n      pop\n        /* \"#utility.yul\":1806:1877   */\n      tag_97\n        /* \"#utility.yul\":1874:1875   */\n      0x00\n        /* \"#utility.yul\":1863:1872   */\n      dup4\n        /* \"#utility.yul\":1859:1876   */\n      add\n        /* \"#utility.yul\":1850:1856   */\n      dup5\n        /* \"#utility.yul\":1806:1877   */\n      tag_70\n      jump\t// in\n    tag_97:\n        /* \"#utility.yul\":1662:1884   */\n      swap3\n      swap2\n      pop\n      pop\n      jump\t// out\n        /* \"#utility.yul\":1890:1980   */\n    tag_71:\n        /* \"#utility.yul\":1924:1931   */\n      0x00\n        /* \"#utility.yul\":1967:1972   */\n      dup2\n        /* \"#utility.yul\":1960:1973   */\n      iszero\n        /* \"#utility.yul\":1953:1974   */\n      iszero\n        /* \"#utility.yul\":1942:1974   */\n      swap1\n      pop\n        /* \"#utility.yul\":1890:1980   */\n      swap2\n      swap1\n      pop\n      jump\t// out\n        /* \"#utility.yul\":1986:2095   */\n    tag_72:\n        /* \"#utility.yul\":2067:2088   */\n      tag_100\n        /* \"#utility.yul\":2082:2087   */\n      dup2\n        /* \"#utility.yul\":2067:2088   */\n      tag_71\n      jump\t// in\n    tag_100:\n        /* \"#utility.yul\":2062:2065   */\n      dup3\n        /* \"#utility.yul\":2055:2089   */\n      mstore\n        /* \"#utility.yul\":1986:2095   */\n      pop\n      pop\n      jump\t// out\n        /* \"#utility.yul\":2101:2311   */\n    tag_41:\n        /* \"#utility.yul\":2188:2192   */\n      0x00\n        /* \"#utility.yul\":2226:2228   */\n      0x20\n        /* \"#utility.yul\":2215:2224   */\n      dup3\n        /* \"#utility.yul\":2211:2229   */\n      add\n        /* \"#utility.yul\":2203:2229   */\n      swap1\n      pop\n        /* \"#utility.yul\":2239:2304   */\n      tag_102\n        /* \"#utility.yul\":2301:2302   */\n      0x00\n        /* \"#utility.yul\":2290:2299   */\n      dup4\n        /* \"#utility.yul\":2286:2303   */\n      add\n        /* \"#utility.yul\":2277:2283   */\n      dup5\n        /* \"#utility.yul\":2239:2304   */\n      tag_72\n      jump\t// in\n    tag_102:\n        /* \"#utility.yul\":2101:2311   */\n      swap3\n      swap2\n      pop\n      pop\n      jump\t// out\n        /* \"#utility.yul\":2317:2421   */\n    tag_73:\n        /* \"#utility.yul\":2362:2369   */\n      0x00\n        /* \"#utility.yul\":2391:2415   */\n      tag_104\n        /* \"#utility.yul\":2409:2414   */\n      dup3\n        /* \"#utility.yul\":2391:2415   */\n      tag_64\n      jump\t// in\n    tag_104:\n        /* \"#utility.yul\":2380:2415   */\n      swap1\n      pop\n        /* \"#utility.yul\":2317:2421   */\n      swap2\n      swap1\n      pop\n      jump\t// out\n        /* \"#utility.yul\":2427:2569   */\n    tag_74:\n        /* \"#utility.yul\":2530:2562   */\n      tag_106\n        /* \"#utility.yul\":2556:2561   */\n      dup2\n        /* \"#utility.yul\":2530:2562   */\n      tag_73\n      jump\t// in\n    tag_106:\n        /* \"#utility.yul\":2525:2528   */\n      dup3\n        /* \"#utility.yul\":2518:2563   */\n      mstore\n        /* \"#utility.yul\":2427:2569   */\n      pop\n      pop\n      jump\t// out\n        /* \"#utility.yul\":2575:2829   */\n    tag_54:\n        /* \"#utility.yul\":2684:2688   */\n      0x00\n        /* \"#utility.yul\":2722:2724   */\n      0x20\n        /* \"#utility.yul\":2711:2720   */\n      dup3\n        /* \"#utility.yul\":2707:2725   */\n      add\n        /* \"#utility.yul\":2699:2725   */\n      swap1\n      pop\n        /* \"#utility.yul\":2735:2822   */\n      tag_108\n        /* \"#utility.yul\":2819:2820   */\n      0x00\n        /* \"#utility.yul\":2808:2817   */\n      dup4\n        /* \"#utility.yul\":2804:2821   */\n      add\n        /* \"#utility.yul\":2795:2801   */\n      dup5\n        /* \"#utility.yul\":2735:2822   */\n      tag_74\n      jump\t// in\n    tag_108:\n        /* \"#utility.yul\":2575:2829   */\n      swap3\n      swap2\n      pop\n      pop\n      jump\t// out\n        /* \"#utility.yul\":2835:3015   */\n    tag_61:\n        /* \"#utility.yul\":2883:2960   */\n      0x4e487b7100000000000000000000000000000000000000000000000000000000\n        /* \"#utility.yul\":2880:2881   */\n      0x00\n        /* \"#utility.yul\":2873:2961   */\n      mstore\n        /* \"#utility.yul\":2980:2984   */\n      0x21\n        /* \"#utility.yul\":2977:2978   */\n      0x04\n        /* \"#utility.yul\":2970:2985   */\n      mstore\n        /* \"#utility.yul\":3004:3008   */\n      0x24\n        /* \"#utility.yul\":3001:3002   */\n      0x00\n        /* \"#utility.yul\":2994:3009   */\n      revert\n\n    auxdata: 0xa26469706673582212204a42affc060c676d9ac7695146efee83f53b8cd92d5f664df8bd97fa136ec6e564736f6c634300081a0033\n}\n",
				"bytecode": {
					"linkReferences": {},
					"object": "608060405260015f806101000a81548160ff021916908315150217905550600180115f60016101000a81548160ff0219169083151502179055506001801561004457505f5b5f60026101000a81548160ff021916908315150217905550600180556002805560026003556001600455737a58c0be72be218b41c608b7fe7c5bb630736c7160055f6101000a81548173ffffffffffffffffffffffffffffffffffffffff021916908373ffffffffffffffffffffffffffffffffffffffff16021790555060055f9054906101000a900473ffffffffffffffffffffffffffffffffffffffff1660065f6101000a81548173ffffffffffffffffffffffffffffffffffffffff021916908373ffffffffffffffffffffffffffffffffffffffff16021790555060065f9054906101000a900473ffffffffffffffffffffffffffffffffffffffff1673ffffffffffffffffffffffffffffffffffffffff16316007557f48656c6c6f20576f726c64000000000000000000000000000000000000000000600855600260095f6101000a81548160ff021916908360028111156101a8576101a76101be565b5b02179055503480156101b8575f80fd5b506101eb565b7f4e487b71000000000000000000000000000000000000000000000000000000005f52602160045260245ffd5b6104a1806101f85f395ff3fe608060405234801561000f575f80fd5b50600436106100b2575f3560e01c8063924b3d211161006f578063924b3d211461016a5780639e6ba9c2146101885780639eb7859a146101a6578063a2e7fe8a146101c4578063ac729403146101e2578063b69ef8a814610200576100b2565b806301019958146100b657806318bad217146100d45780633c119e34146100f25780633f3461021461011057806353e95af91461012e5780635e2aa7d31461014c575b5f80fd5b6100be61021e565b6040516100cb91906102ff565b60405180910390f35b6100dc610245565b6040516100e99190610357565b60405180910390f35b6100fa61026a565b6040516101079190610388565b60405180910390f35b610118610270565b60405161012591906103b9565b60405180910390f35b610136610276565b6040516101439190610388565b60405180910390f35b61015461027c565b6040516101619190610388565b60405180910390f35b610172610282565b60405161017f91906103ec565b60405180910390f35b610190610294565b60405161019d91906103ec565b60405180910390f35b6101ae6102a4565b6040516101bb9190610388565b60405180910390f35b6101cc6102aa565b6040516101d991906103ec565b60405180910390f35b6101ea6102bc565b6040516101f79190610425565b60405180910390f35b6102086102e1565b60405161021591906102ff565b60405180910390f35b5f60095f9054906101000a900460ff1660028111156102405761023f61043e565b5b905090565b60055f9054906101000a900473ffffffffffffffffffffffffffffffffffffffff1681565b60035481565b60085481565b60025481565b60045481565b5f60019054906101000a900460ff1681565b5f8054906101000a900460ff1681565b60015481565b5f60029054906101000a900460ff1681565b60065f9054906101000a900473ffffffffffffffffffffffffffffffffffffffff1681565b60075481565b5f819050919050565b6102f9816102e7565b82525050565b5f6020820190506103125f8301846102f0565b92915050565b5f73ffffffffffffffffffffffffffffffffffffffff82169050919050565b5f61034182610318565b9050919050565b61035181610337565b82525050565b5f60208201905061036a5f830184610348565b92915050565b5f819050919050565b61038281610370565b82525050565b5f60208201905061039b5f830184610379565b92915050565b5f819050919050565b6103b3816103a1565b82525050565b5f6020820190506103cc5f8301846103aa565b92915050565b5f8115159050919050565b6103e6816103d2565b82525050565b5f6020820190506103ff5f8301846103dd565b92915050565b5f61040f82610318565b9050919050565b61041f81610405565b82525050565b5f6020820190506104385f830184610416565b92915050565b7f4e487b71000000000000000000000000000000000000000000000000000000005f52602160045260245ffdfea26469706673582212204a42affc060c676d9ac7695146efee83f53b8cd92d5f664df8bd97fa136ec6e564736f6c634300081a0033",
					"opcodes": "PUSH1 0x80 PUSH1 0x40 MSTORE PUSH1 0x1 PUSH0 DUP1 PUSH2 0x100 EXP DUP2 SLOAD DUP2 PUSH1 0xFF MUL NOT AND SWAP1 DUP4 ISZERO ISZERO MUL OR SWAP1 SSTORE POP PUSH1 0x1 DUP1 GT PUSH0 PUSH1 0x1 PUSH2 0x100 EXP DUP2 SLOAD DUP2 PUSH1 0xFF MUL NOT AND SWAP1 DUP4 ISZERO ISZERO MUL OR SWAP1 SSTORE POP PUSH1 0x1 DUP1 ISZERO PUSH2 0x44 JUMPI POP PUSH0 JUMPDEST PUSH0 PUSH1 0x2 PUSH2 0x100 EXP DUP2 SLOAD DUP2 PUSH1 0xFF MUL NOT AND SWAP1 DUP4 ISZERO ISZERO MUL OR SWAP1 SSTORE POP PUSH1 0x1 DUP1 SSTORE PUSH1 0x2 DUP1 SSTORE PUSH1 0x2 PUSH1 0x3 SSTORE PUSH1 0x1 PUSH1 0x4 SSTORE PUSH20 0x7A58C0BE72BE218B41C608B7FE7C5BB630736C71 PUSH1 0x5 PUSH0 PUSH2 0x100 EXP DUP2 SLOAD DUP2 PUSH20 0xFFFFFFFFFFFFFFFFFFFFFFFFFFFFFFFFFFFFFFFF MUL NOT AND SWAP1 DUP4 PUSH20 0xFFFFFFFFFFFFFFFFFFFFFFFFFFFFFFFFFFFFFFFF AND MUL OR SWAP1 SSTORE POP PUSH1 0x5 PUSH0 SWAP1 SLOAD SWAP1 PUSH2 0x100 EXP SWAP1 DIV PUSH20 0xFFFFFFFFFFFFFFFFFFFFFFFFFFFFFFFFFFFFFFFF AND PUSH1 0x6 PUSH0 PUSH2 0x100 EXP DUP2 SLOAD DUP2 PUSH20 0xFFFFFFFFFFFFFFFFFFFFFFFFFFFFFFFFFFFFFFFF MUL NOT AND SWAP1 DUP4 PUSH20 0xFFFFFFFFFFFFFFFFFFFFFFFFFFFFFFFFFFFFFFFF AND MUL OR SWAP1 SSTORE POP PUSH1 0x6 PUSH0 SWAP1 SLOAD SWAP1 PUSH2 0x100 EXP SWAP1 DIV PUSH20 0xFFFFFFFFFFFFFFFFFFFFFFFFFFFFFFFFFFFFFFFF AND PUSH20 0xFFFFFFFFFFFFFFFFFFFFFFFFFFFFFFFFFFFFFFFF AND BALANCE PUSH1 0x7 SSTORE PUSH32 0x48656C6C6F20576F726C64000000000000000000000000000000000000000000 PUSH1 0x8 SSTORE PUSH1 0x2 PUSH1 0x9 PUSH0 PUSH2 0x100 EXP DUP2 SLOAD DUP2 PUSH1 0xFF MUL NOT AND SWAP1 DUP4 PUSH1 0x2 DUP2 GT ISZERO PUSH2 0x1A8 JUMPI PUSH2 0x1A7 PUSH2 0x1BE JUMP JUMPDEST JUMPDEST MUL OR SWAP1 SSTORE POP CALLVALUE DUP1 ISZERO PUSH2 0x1B8 JUMPI PUSH0 DUP1 REVERT JUMPDEST POP PUSH2 0x1EB JUMP JUMPDEST PUSH32 0x4E487B7100000000000000000000000000000000000000000000000000000000 PUSH0 MSTORE PUSH1 0x21 PUSH1 0x4 MSTORE PUSH1 0x24 PUSH0 REVERT JUMPDEST PUSH2 0x4A1 DUP1 PUSH2 0x1F8 PUSH0 CODECOPY PUSH0 RETURN INVALID PUSH1 0x80 PUSH1 0x40 MSTORE CALLVALUE DUP1 ISZERO PUSH2 0xF JUMPI PUSH0 DUP1 REVERT JUMPDEST POP PUSH1 0x4 CALLDATASIZE LT PUSH2 0xB2 JUMPI PUSH0 CALLDATALOAD PUSH1 0xE0 SHR DUP1 PUSH4 0x924B3D21 GT PUSH2 0x6F JUMPI DUP1 PUSH4 0x924B3D21 EQ PUSH2 0x16A JUMPI DUP1 PUSH4 0x9E6BA9C2 EQ PUSH2 0x188 JUMPI DUP1 PUSH4 0x9EB7859A EQ PUSH2 0x1A6 JUMPI DUP1 PUSH4 0xA2E7FE8A EQ PUSH2 0x1C4 JUMPI DUP1 PUSH4 0xAC729403 EQ PUSH2 0x1E2 JUMPI DUP1 PUSH4 0xB69EF8A8 EQ PUSH2 0x200 JUMPI PUSH2 0xB2 JUMP JUMPDEST DUP1 PUSH4 0x1019958 EQ PUSH2 0xB6 JUMPI DUP1 PUSH4 0x18BAD217 EQ PUSH2 0xD4 JUMPI DUP1 PUSH4 0x3C119E34 EQ PUSH2 0xF2 JUMPI DUP1 PUSH4 0x3F346102 EQ PUSH2 0x110 JUMPI DUP1 PUSH4 0x53E95AF9 EQ PUSH2 0x12E JUMPI DUP1 PUSH4 0x5E2AA7D3 EQ PUSH2 0x14C JUMPI JUMPDEST PUSH0 DUP1 REVERT JUMPDEST PUSH2 0xBE PUSH2 0x21E JUMP JUMPDEST PUSH1 0x40 MLOAD PUSH2 0xCB SWAP2 SWAP1 PUSH2 0x2FF JUMP JUMPDEST PUSH1 0x40 MLOAD DUP1 SWAP2 SUB SWAP1 RETURN JUMPDEST PUSH2 0xDC PUSH2 0x245 JUMP JUMPDEST PUSH1 0x40 MLOAD PUSH2 0xE9 SWAP2 SWAP1 PUSH2 0x357 JUMP JUMPDEST PUSH1 0x40 MLOAD DUP1 SWAP2 SUB SWAP1 RETURN JUMPDEST PUSH2 0xFA PUSH2 0x26A JUMP JUMPDEST PUSH1 0x40 MLOAD PUSH2 0x107 SWAP2 SWAP1 PUSH2 0x388 JUMP JUMPDEST PUSH1 0x40 MLOAD DUP1 SWAP2 SUB SWAP1 RETURN JUMPDEST PUSH2 0x118 PUSH2 0x270 JUMP JUMPDEST PUSH1 0x40 MLOAD PUSH2 0x125 SWAP2 SWAP1 PUSH2 0x3B9 JUMP JUMPDEST PUSH1 0x40 MLOAD DUP1 SWAP2 SUB SWAP1 RETURN JUMPDEST PUSH2 0x136 PUSH2 0x276 JUMP JUMPDEST PUSH1 0x40 MLOAD PUSH2 0x143 SWAP2 SWAP1 PUSH2 0x388 JUMP JUMPDEST PUSH1 0x40 MLOAD DUP1 SWAP2 SUB SWAP1 RETURN JUMPDEST PUSH2 0x154 PUSH2 0x27C JUMP JUMPDEST PUSH1 0x40 MLOAD PUSH2 0x161 SWAP2 SWAP1 PUSH2 0x388 JUMP JUMPDEST PUSH1 0x40 MLOAD DUP1 SWAP2 SUB SWAP1 RETURN JUMPDEST PUSH2 0x172 PUSH2 0x282 JUMP JUMPDEST PUSH1 0x40 MLOAD PUSH2 0x17F SWAP2 SWAP1 PUSH2 0x3EC JUMP JUMPDEST PUSH1 0x40 MLOAD DUP1 SWAP2 SUB SWAP1 RETURN JUMPDEST PUSH2 0x190 PUSH2 0x294 JUMP JUMPDEST PUSH1 0x40 MLOAD PUSH2 0x19D SWAP2 SWAP1 PUSH2 0x3EC JUMP JUMPDEST PUSH1 0x40 MLOAD DUP1 SWAP2 SUB SWAP1 RETURN JUMPDEST PUSH2 0x1AE PUSH2 0x2A4 JUMP JUMPDEST PUSH1 0x40 MLOAD PUSH2 0x1BB SWAP2 SWAP1 PUSH2 0x388 JUMP JUMPDEST PUSH1 0x40 MLOAD DUP1 SWAP2 SUB SWAP1 RETURN JUMPDEST PUSH2 0x1CC PUSH2 0x2AA JUMP JUMPDEST PUSH1 0x40 MLOAD PUSH2 0x1D9 SWAP2 SWAP1 PUSH2 0x3EC JUMP JUMPDEST PUSH1 0x40 MLOAD DUP1 SWAP2 SUB SWAP1 RETURN JUMPDEST PUSH2 0x1EA PUSH2 0x2BC JUMP JUMPDEST PUSH1 0x40 MLOAD PUSH2 0x1F7 SWAP2 SWAP1 PUSH2 0x425 JUMP JUMPDEST PUSH1 0x40 MLOAD DUP1 SWAP2 SUB SWAP1 RETURN JUMPDEST PUSH2 0x208 PUSH2 0x2E1 JUMP JUMPDEST PUSH1 0x40 MLOAD PUSH2 0x215 SWAP2 SWAP1 PUSH2 0x2FF JUMP JUMPDEST PUSH1 0x40 MLOAD DUP1 SWAP2 SUB SWAP1 RETURN JUMPDEST PUSH0 PUSH1 0x9 PUSH0 SWAP1 SLOAD SWAP1 PUSH2 0x100 EXP SWAP1 DIV PUSH1 0xFF AND PUSH1 0x2 DUP2 GT ISZERO PUSH2 0x240 JUMPI PUSH2 0x23F PUSH2 0x43E JUMP JUMPDEST JUMPDEST SWAP1 POP SWAP1 JUMP JUMPDEST PUSH1 0x5 PUSH0 SWAP1 SLOAD SWAP1 PUSH2 0x100 EXP SWAP1 DIV PUSH20 0xFFFFFFFFFFFFFFFFFFFFFFFFFFFFFFFFFFFFFFFF AND DUP2 JUMP JUMPDEST PUSH1 0x3 SLOAD DUP2 JUMP JUMPDEST PUSH1 0x8 SLOAD DUP2 JUMP JUMPDEST PUSH1 0x2 SLOAD DUP2 JUMP JUMPDEST PUSH1 0x4 SLOAD DUP2 JUMP JUMPDEST PUSH0 PUSH1 0x1 SWAP1 SLOAD SWAP1 PUSH2 0x100 EXP SWAP1 DIV PUSH1 0xFF AND DUP2 JUMP JUMPDEST PUSH0 DUP1 SLOAD SWAP1 PUSH2 0x100 EXP SWAP1 DIV PUSH1 0xFF AND DUP2 JUMP JUMPDEST PUSH1 0x1 SLOAD DUP2 JUMP JUMPDEST PUSH0 PUSH1 0x2 SWAP1 SLOAD SWAP1 PUSH2 0x100 EXP SWAP1 DIV PUSH1 0xFF AND DUP2 JUMP JUMPDEST PUSH1 0x6 PUSH0 SWAP1 SLOAD SWAP1 PUSH2 0x100 EXP SWAP1 DIV PUSH20 0xFFFFFFFFFFFFFFFFFFFFFFFFFFFFFFFFFFFFFFFF AND DUP2 JUMP JUMPDEST PUSH1 0x7 SLOAD DUP2 JUMP JUMPDEST PUSH0 DUP2 SWAP1 POP SWAP2 SWAP1 POP JUMP JUMPDEST PUSH2 0x2F9 DUP2 PUSH2 0x2E7 JUMP JUMPDEST DUP3 MSTORE POP POP JUMP JUMPDEST PUSH0 PUSH1 0x20 DUP3 ADD SWAP1 POP PUSH2 0x312 PUSH0 DUP4 ADD DUP5 PUSH2 0x2F0 JUMP JUMPDEST SWAP3 SWAP2 POP POP JUMP JUMPDEST PUSH0 PUSH20 0xFFFFFFFFFFFFFFFFFFFFFFFFFFFFFFFFFFFFFFFF DUP3 AND SWAP1 POP SWAP2 SWAP1 POP JUMP JUMPDEST PUSH0 PUSH2 0x341 DUP3 PUSH2 0x318 JUMP JUMPDEST SWAP1 POP SWAP2 SWAP1 POP JUMP JUMPDEST PUSH2 0x351 DUP2 PUSH2 0x337 JUMP JUMPDEST DUP3 MSTORE POP POP JUMP JUMPDEST PUSH0 PUSH1 0x20 DUP3 ADD SWAP1 POP PUSH2 0x36A PUSH0 DUP4 ADD DUP5 PUSH2 0x348 JUMP JUMPDEST SWAP3 SWAP2 POP POP JUMP JUMPDEST PUSH0 DUP2 SWAP1 POP SWAP2 SWAP1 POP JUMP JUMPDEST PUSH2 0x382 DUP2 PUSH2 0x370 JUMP JUMPDEST DUP3 MSTORE POP POP JUMP JUMPDEST PUSH0 PUSH1 0x20 DUP3 ADD SWAP1 POP PUSH2 0x39B PUSH0 DUP4 ADD DUP5 PUSH2 0x379 JUMP JUMPDEST SWAP3 SWAP2 POP POP JUMP JUMPDEST PUSH0 DUP2 SWAP1 POP SWAP2 SWAP1 POP JUMP JUMPDEST PUSH2 0x3B3 DUP2 PUSH2 0x3A1 JUMP JUMPDEST DUP3 MSTORE POP POP JUMP JUMPDEST PUSH0 PUSH1 0x20 DUP3 ADD SWAP1 POP PUSH2 0x3CC PUSH0 DUP4 ADD DUP5 PUSH2 0x3AA JUMP JUMPDEST SWAP3 SWAP2 POP POP JUMP JUMPDEST PUSH0 DUP2 ISZERO ISZERO SWAP1 POP SWAP2 SWAP1 POP JUMP JUMPDEST PUSH2 0x3E6 DUP2 PUSH2 0x3D2 JUMP JUMPDEST DUP3 MSTORE POP POP JUMP JUMPDEST PUSH0 PUSH1 0x20 DUP3 ADD SWAP1 POP PUSH2 0x3FF PUSH0 DUP4 ADD DUP5 PUSH2 0x3DD JUMP JUMPDEST SWAP3 SWAP2 POP POP JUMP JUMPDEST PUSH0 PUSH2 0x40F DUP3 PUSH2 0x318 JUMP JUMPDEST SWAP1 POP SWAP2 SWAP1 POP JUMP JUMPDEST PUSH2 0x41F DUP2 PUSH2 0x405 JUMP JUMPDEST DUP3 MSTORE POP POP JUMP JUMPDEST PUSH0 PUSH1 0x20 DUP3 ADD SWAP1 POP PUSH2 0x438 PUSH0 DUP4 ADD DUP5 PUSH2 0x416 JUMP JUMPDEST SWAP3 SWAP2 POP POP JUMP JUMPDEST PUSH32 0x4E487B7100000000000000000000000000000000000000000000000000000000 PUSH0 MSTORE PUSH1 0x21 PUSH1 0x4 MSTORE PUSH1 0x24 PUSH0 REVERT INVALID LOG2 PUSH5 0x6970667358 0x22 SLT KECCAK256 BLOBBASEFEE TIMESTAMP 0xAF 0xFC MOD 0xC PUSH8 0x6D9AC7695146EFEE DUP4 CREATE2 EXTCODESIZE DUP13 0xD9 0x2D PUSH0 PUSH7 0x4DF8BD97FA136E 0xC6 0xE5 PUSH5 0x736F6C6343 STOP ADDMOD BYTE STOP CALLER "
				},
				"gasEstimates": {
					"creation": {
						"codeDepositCost": "237000",
						"executionCost": "285549",
						"totalCost": "522549"
					},
					"external": {
						"_address()": "2531",
						"_address1()": "2596",
						"_bool()": "2485",
						"_bool1()": "2516",
						"_bool2()": "2582",
						"_byte32()": "2492",
						"_int1()": "2469",
						"_int2()": "2514",
						"_int3()": "2470",
						"_int4()": "2536",
						"balance()": "2535",
						"enumToUint()": "2494"
					}
				},
				"methodIdentifiers": {
					"_address()": "18bad217",
					"_address1()": "ac729403",
					"_bool()": "9e6ba9c2",
					"_bool1()": "924b3d21",
					"_bool2()": "a2e7fe8a",
					"_byte32()": "3f346102",
					"_int1()": "9eb7859a",
					"_int2()": "53e95af9",
					"_int3()": "3c119e34",
					"_int4()": "5e2aa7d3",
					"balance()": "b69ef8a8",
					"enumToUint()": "01019958"
				}
			},
			"storageLayout": {
				"storage": [
					{
						"astId": 4,
						"contract": "wtf-solidity/ValueType.sol:ValueType",
						"label": "_bool",
						"offset": 0,
						"slot": "0",
						"type": "t_bool"
					},
					{
						"astId": 9,
						"contract": "wtf-solidity/ValueType.sol:ValueType",
						"label": "_bool1",
						"offset": 1,
						"slot": "0",
						"type": "t_bool"
					},
					{
						"astId": 14,
						"contract": "wtf-solidity/ValueType.sol:ValueType",
						"label": "_bool2",
						"offset": 2,
						"slot": "0",
						"type": "t_bool"
					},
					{
						"astId": 17,
						"contract": "wtf-solidity/ValueType.sol:ValueType",
						"label": "_int1",
						"offset": 0,
						"slot": "1",
						"type": "t_int256"
					},
					{
						"astId": 20,
						"contract": "wtf-solidity/ValueType.sol:ValueType",
						"label": "_int2",
						"offset": 0,
						"slot": "2",
						"type": "t_int256"
					},
					{
						"astId": 25,
						"contract": "wtf-solidity/ValueType.sol:ValueType",
						"label": "_int3",
						"offset": 0,
						"slot": "3",
						"type": "t_int256"
					},
					{
						"astId": 30,
						"contract": "wtf-solidity/ValueType.sol:ValueType",
						"label": "_int4",
						"offset": 0,
						"slot": "4",
						"type": "t_int256"
					},
					{
						"astId": 33,
						"contract": "wtf-solidity/ValueType.sol:ValueType",
						"label": "_address",
						"offset": 0,
						"slot": "5",
						"type": "t_address"
					},
					{
						"astId": 39,
						"contract": "wtf-solidity/ValueType.sol:ValueType",
						"label": "_address1",
						"offset": 0,
						"slot": "6",
						"type": "t_address_payable"
					},
					{
						"astId": 43,
						"contract": "wtf-solidity/ValueType.sol:ValueType",
						"label": "balance",
						"offset": 0,
						"slot": "7",
						"type": "t_uint256"
					},
					{
						"astId": 46,
						"contract": "wtf-solidity/ValueType.sol:ValueType",
						"label": "_byte32",
						"offset": 0,
						"slot": "8",
						"type": "t_bytes32"
					},
					{
						"astId": 55,
						"contract": "wtf-solidity/ValueType.sol:ValueType",
						"label": "action",
						"offset": 0,
						"slot": "9",
						"type": "t_enum(STATE)50"
					}
				],
				"types": {
					"t_address": {
						"encoding": "inplace",
						"label": "address",
						"numberOfBytes": "20"
					},
					"t_address_payable": {
						"encoding": "inplace",
						"label": "address payable",
						"numberOfBytes": "20"
					},
					"t_bool": {
						"encoding": "inplace",
						"label": "bool",
						"numberOfBytes": "1"
					},
					"t_bytes32": {
						"encoding": "inplace",
						"label": "bytes32",
						"numberOfBytes": "32"
					},
					"t_enum(STATE)50": {
						"encoding": "inplace",
						"label": "enum ValueType.STATE",
						"numberOfBytes": "1"
					},
					"t_int256": {
						"encoding": "inplace",
						"label": "int256",
						"numberOfBytes": "32"
					},
					"t_uint256": {
						"encoding": "inplace",
						"label": "uint256",
						"numberOfBytes": "32"
					}
				}
			},
			"userdoc": {
				"kind": "user",
				"methods": {},
				"version": 1
			}
		}
	}
}