{
	"data": {
		"bytecode": {
			"linkReferences": {},
			"object": "608060405234801561000f575f80fd5b506107a18061001d5f395ff3fe608060405234801561000f575f80fd5b5060043610610060575f3560e01c806326121ff0146100645780633632f4fb1461006e5780634e428af1146100785780638473ed1c14610082578063abb91d181461008c578063d14d385d14610096575b5f80fd5b61006c6100b2565b005b6100766100da565b005b61008061012e565b005b61008a61019d565b005b6100946101ef565b005b6100b060048036038101906100ab9190610440565b6102bf565b005b6100d86040518060600160405280600181526020016002815260200160038152506102bf565b565b5f6014815f01819055506040518060400160405280600381526020017f546f6d000000000000000000000000000000000000000000000000000000000081525081600101908161012a919061066f565b5050565b6040518060400160405280601481526020016040518060400160405280600381526020017f546f6d00000000000000000000000000000000000000000000000000000000008152508152505f80820151815f01556020820151816001019081610197919061066f565b50905050565b60145f8001819055506040518060400160405280600381526020017f546f6d00000000000000000000000000000000000000000000000000000000008152505f60010190816101ec919061066f565b50565b5f600367ffffffffffffffff81111561020b5761020a6102e3565b5b6040519080825280602002602001820160405280156102395781602001602082028036833780820191505090505b5090506001815f815181106102515761025061073e565b5b602002602001019060ff16908160ff168152505060028160018151811061027b5761027a61073e565b5b602002602001019060ff16908160ff16815250506003816002815181106102a5576102a461073e565b5b602002602001019060ff16908160ff168152505080515050565b50565b5f604051905090565b5f80fd5b5f80fd5b5f601f19601f8301169050919050565b7f4e487b71000000000000000000000000000000000000000000000000000000005f52604160045260245ffd5b610319826102d3565b810181811067ffffffffffffffff82111715610338576103376102e3565b5b80604052505050565b5f61034a6102c2565b90506103568282610310565b919050565b5f67ffffffffffffffff821115610375576103746102e3565b5b602082029050919050565b5f80fd5b5f819050919050565b61039681610384565b81146103a0575f80fd5b50565b5f813590506103b18161038d565b92915050565b5f6103c96103c48461035b565b610341565b905080602084028301858111156103e3576103e2610380565b5b835b8181101561040c57806103f888826103a3565b8452602084019350506020810190506103e5565b5050509392505050565b5f82601f83011261042a576104296102cf565b5b60036104378482856103b7565b91505092915050565b5f60608284031215610455576104546102cb565b5b5f61046284828501610416565b91505092915050565b5f81519050919050565b7f4e487b71000000000000000000000000000000000000000000000000000000005f52602260045260245ffd5b5f60028204905060018216806104b957607f821691505b6020821081036104cc576104cb610475565b5b50919050565b5f819050815f5260205f209050919050565b5f6020601f8301049050919050565b5f82821b905092915050565b5f6008830261052e7fffffffffffffffffffffffffffffffffffffffffffffffffffffffffffffffff826104f3565b61053886836104f3565b95508019841693508086168417925050509392505050565b5f819050919050565b5f61057361056e61056984610384565b610550565b610384565b9050919050565b5f819050919050565b61058c83610559565b6105a06105988261057a565b8484546104ff565b825550505050565b5f90565b6105b46105a8565b6105bf818484610583565b505050565b5b818110156105e2576105d75f826105ac565b6001810190506105c5565b5050565b601f821115610627576105f8816104d2565b610601846104e4565b81016020851015610610578190505b61062461061c856104e4565b8301826105c4565b50505b505050565b5f82821c905092915050565b5f6106475f198460080261062c565b1980831691505092915050565b5f61065f8383610638565b9150826002028217905092915050565b6106788261046b565b67ffffffffffffffff811115610691576106906102e3565b5b61069b82546104a2565b6106a68282856105e6565b5f60209050601f8311600181146106d7575f84156106c5578287015190505b6106cf8582610654565b865550610736565b601f1984166106e5866104d2565b5f5b8281101561070c578489015182556001820191506020850194506020810190506106e7565b868310156107295784890151610725601f891682610638565b8355505b6001600288020188555050505b505050505050565b7f4e487b71000000000000000000000000000000000000000000000000000000005f52603260045260245ffdfea2646970667358221220e5381a45867ae4e2738c0de7283faa2fae1dd68d8da4bcbeff1d36b76b371c3664736f6c63430008160033",
			"opcodes": "PUSH1 0x80 PUSH1 0x40 MSTORE CALLVALUE DUP1 ISZERO PUSH2 0xF JUMPI PUSH0 DUP1 REVERT JUMPDEST POP PUSH2 0x7A1 DUP1 PUSH2 0x1D PUSH0 CODECOPY PUSH0 RETURN INVALID PUSH1 0x80 PUSH1 0x40 MSTORE CALLVALUE DUP1 ISZERO PUSH2 0xF JUMPI PUSH0 DUP1 REVERT JUMPDEST POP PUSH1 0x4 CALLDATASIZE LT PUSH2 0x60 JUMPI PUSH0 CALLDATALOAD PUSH1 0xE0 SHR DUP1 PUSH4 0x26121FF0 EQ PUSH2 0x64 JUMPI DUP1 PUSH4 0x3632F4FB EQ PUSH2 0x6E JUMPI DUP1 PUSH4 0x4E428AF1 EQ PUSH2 0x78 JUMPI DUP1 PUSH4 0x8473ED1C EQ PUSH2 0x82 JUMPI DUP1 PUSH4 0xABB91D18 EQ PUSH2 0x8C JUMPI DUP1 PUSH4 0xD14D385D EQ PUSH2 0x96 JUMPI JUMPDEST PUSH0 DUP1 REVERT JUMPDEST PUSH2 0x6C PUSH2 0xB2 JUMP JUMPDEST STOP JUMPDEST PUSH2 0x76 PUSH2 0xDA JUMP JUMPDEST STOP JUMPDEST PUSH2 0x80 PUSH2 0x12E JUMP JUMPDEST STOP JUMPDEST PUSH2 0x8A PUSH2 0x19D JUMP JUMPDEST STOP JUMPDEST PUSH2 0x94 PUSH2 0x1EF JUMP JUMPDEST STOP JUMPDEST PUSH2 0xB0 PUSH1 0x4 DUP1 CALLDATASIZE SUB DUP2 ADD SWAP1 PUSH2 0xAB SWAP2 SWAP1 PUSH2 0x440 JUMP JUMPDEST PUSH2 0x2BF JUMP JUMPDEST STOP JUMPDEST PUSH2 0xD8 PUSH1 0x40 MLOAD DUP1 PUSH1 0x60 ADD PUSH1 0x40 MSTORE DUP1 PUSH1 0x1 DUP2 MSTORE PUSH1 0x20 ADD PUSH1 0x2 DUP2 MSTORE PUSH1 0x20 ADD PUSH1 0x3 DUP2 MSTORE POP PUSH2 0x2BF JUMP JUMPDEST JUMP JUMPDEST PUSH0 PUSH1 0x14 DUP2 PUSH0 ADD DUP2 SWAP1 SSTORE POP PUSH1 0x40 MLOAD DUP1 PUSH1 0x40 ADD PUSH1 0x40 MSTORE DUP1 PUSH1 0x3 DUP2 MSTORE PUSH1 0x20 ADD PUSH32 0x546F6D0000000000000000000000000000000000000000000000000000000000 DUP2 MSTORE POP DUP2 PUSH1 0x1 ADD SWAP1 DUP2 PUSH2 0x12A SWAP2 SWAP1 PUSH2 0x66F JUMP JUMPDEST POP POP JUMP JUMPDEST PUSH1 0x40 MLOAD DUP1 PUSH1 0x40 ADD PUSH1 0x40 MSTORE DUP1 PUSH1 0x14 DUP2 MSTORE PUSH1 0x20 ADD PUSH1 0x40 MLOAD DUP1 PUSH1 0x40 ADD PUSH1 0x40 MSTORE DUP1 PUSH1 0x3 DUP2 MSTORE PUSH1 0x20 ADD PUSH32 0x546F6D0000000000000000000000000000000000000000000000000000000000 DUP2 MSTORE POP DUP2 MSTORE POP PUSH0 DUP1 DUP3 ADD MLOAD DUP2 PUSH0 ADD SSTORE PUSH1 0x20 DUP3 ADD MLOAD DUP2 PUSH1 0x1 ADD SWAP1 DUP2 PUSH2 0x197 SWAP2 SWAP1 PUSH2 0x66F JUMP JUMPDEST POP SWAP1 POP POP JUMP JUMPDEST PUSH1 0x14 PUSH0 DUP1 ADD DUP2 SWAP1 SSTORE POP PUSH1 0x40 MLOAD DUP1 PUSH1 0x40 ADD PUSH1 0x40 MSTORE DUP1 PUSH1 0x3 DUP2 MSTORE PUSH1 0x20 ADD PUSH32 0x546F6D0000000000000000000000000000000000000000000000000000000000 DUP2 MSTORE POP PUSH0 PUSH1 0x1 ADD SWAP1 DUP2 PUSH2 0x1EC SWAP2 SWAP1 PUSH2 0x66F JUMP JUMPDEST POP JUMP JUMPDEST PUSH0 PUSH1 0x3 PUSH8 0xFFFFFFFFFFFFFFFF DUP2 GT ISZERO PUSH2 0x20B JUMPI PUSH2 0x20A PUSH2 0x2E3 JUMP JUMPDEST JUMPDEST PUSH1 0x40 MLOAD SWAP1 DUP1 DUP3 MSTORE DUP1 PUSH1 0x20 MUL PUSH1 0x20 ADD DUP3 ADD PUSH1 0x40 MSTORE DUP1 ISZERO PUSH2 0x239 JUMPI DUP2 PUSH1 0x20 ADD PUSH1 0x20 DUP3 MUL DUP1 CALLDATASIZE DUP4 CALLDATACOPY DUP1 DUP3 ADD SWAP2 POP POP SWAP1 POP JUMPDEST POP SWAP1 POP PUSH1 0x1 DUP2 PUSH0 DUP2 MLOAD DUP2 LT PUSH2 0x251 JUMPI PUSH2 0x250 PUSH2 0x73E JUMP JUMPDEST JUMPDEST PUSH1 0x20 MUL PUSH1 0x20 ADD ADD SWAP1 PUSH1 0xFF AND SWAP1 DUP2 PUSH1 0xFF AND DUP2 MSTORE POP POP PUSH1 0x2 DUP2 PUSH1 0x1 DUP2 MLOAD DUP2 LT PUSH2 0x27B JUMPI PUSH2 0x27A PUSH2 0x73E JUMP JUMPDEST JUMPDEST PUSH1 0x20 MUL PUSH1 0x20 ADD ADD SWAP1 PUSH1 0xFF AND SWAP1 DUP2 PUSH1 0xFF AND DUP2 MSTORE POP POP PUSH1 0x3 DUP2 PUSH1 0x2 DUP2 MLOAD DUP2 LT PUSH2 0x2A5 JUMPI PUSH2 0x2A4 PUSH2 0x73E JUMP JUMPDEST JUMPDEST PUSH1 0x20 MUL PUSH1 0x20 ADD ADD SWAP1 PUSH1 0xFF AND SWAP1 DUP2 PUSH1 0xFF AND DUP2 MSTORE POP POP DUP1 MLOAD POP POP JUMP JUMPDEST POP JUMP JUMPDEST PUSH0 PUSH1 0x40 MLOAD SWAP1 POP SWAP1 JUMP JUMPDEST PUSH0 DUP1 REVERT JUMPDEST PUSH0 DUP1 REVERT JUMPDEST PUSH0 PUSH1 0x1F NOT PUSH1 0x1F DUP4 ADD AND SWAP1 POP SWAP2 SWAP1 POP JUMP JUMPDEST PUSH32 0x4E487B7100000000000000000000000000000000000000000000000000000000 PUSH0 MSTORE PUSH1 0x41 PUSH1 0x4 MSTORE PUSH1 0x24 PUSH0 REVERT JUMPDEST PUSH2 0x319 DUP3 PUSH2 0x2D3 JUMP JUMPDEST DUP2 ADD DUP2 DUP2 LT PUSH8 0xFFFFFFFFFFFFFFFF DUP3 GT OR ISZERO PUSH2 0x338 JUMPI PUSH2 0x337 PUSH2 0x2E3 JUMP JUMPDEST JUMPDEST DUP1 PUSH1 0x40 MSTORE POP POP POP JUMP JUMPDEST PUSH0 PUSH2 0x34A PUSH2 0x2C2 JUMP JUMPDEST SWAP1 POP PUSH2 0x356 DUP3 DUP3 PUSH2 0x310 JUMP JUMPDEST SWAP2 SWAP1 POP JUMP JUMPDEST PUSH0 PUSH8 0xFFFFFFFFFFFFFFFF DUP3 GT ISZERO PUSH2 0x375 JUMPI PUSH2 0x374 PUSH2 0x2E3 JUMP JUMPDEST JUMPDEST PUSH1 0x20 DUP3 MUL SWAP1 POP SWAP2 SWAP1 POP JUMP JUMPDEST PUSH0 DUP1 REVERT JUMPDEST PUSH0 DUP2 SWAP1 POP SWAP2 SWAP1 POP JUMP JUMPDEST PUSH2 0x396 DUP2 PUSH2 0x384 JUMP JUMPDEST DUP2 EQ PUSH2 0x3A0 JUMPI PUSH0 DUP1 REVERT JUMPDEST POP JUMP JUMPDEST PUSH0 DUP2 CALLDATALOAD SWAP1 POP PUSH2 0x3B1 DUP2 PUSH2 0x38D JUMP JUMPDEST SWAP3 SWAP2 POP POP JUMP JUMPDEST PUSH0 PUSH2 0x3C9 PUSH2 0x3C4 DUP5 PUSH2 0x35B JUMP JUMPDEST PUSH2 0x341 JUMP JUMPDEST SWAP1 POP DUP1 PUSH1 0x20 DUP5 MUL DUP4 ADD DUP6 DUP2 GT ISZERO PUSH2 0x3E3 JUMPI PUSH2 0x3E2 PUSH2 0x380 JUMP JUMPDEST JUMPDEST DUP4 JUMPDEST DUP2 DUP2 LT ISZERO PUSH2 0x40C JUMPI DUP1 PUSH2 0x3F8 DUP9 DUP3 PUSH2 0x3A3 JUMP JUMPDEST DUP5 MSTORE PUSH1 0x20 DUP5 ADD SWAP4 POP POP PUSH1 0x20 DUP2 ADD SWAP1 POP PUSH2 0x3E5 JUMP JUMPDEST POP POP POP SWAP4 SWAP3 POP POP POP JUMP JUMPDEST PUSH0 DUP3 PUSH1 0x1F DUP4 ADD SLT PUSH2 0x42A JUMPI PUSH2 0x429 PUSH2 0x2CF JUMP JUMPDEST JUMPDEST PUSH1 0x3 PUSH2 0x437 DUP5 DUP3 DUP6 PUSH2 0x3B7 JUMP JUMPDEST SWAP2 POP POP SWAP3 SWAP2 POP POP JUMP JUMPDEST PUSH0 PUSH1 0x60 DUP3 DUP5 SUB SLT ISZERO PUSH2 0x455 JUMPI PUSH2 0x454 PUSH2 0x2CB JUMP JUMPDEST JUMPDEST PUSH0 PUSH2 0x462 DUP5 DUP3 DUP6 ADD PUSH2 0x416 JUMP JUMPDEST SWAP2 POP POP SWAP3 SWAP2 POP POP JUMP JUMPDEST PUSH0 DUP2 MLOAD SWAP1 POP SWAP2 SWAP1 POP JUMP JUMPDEST PUSH32 0x4E487B7100000000000000000000000000000000000000000000000000000000 PUSH0 MSTORE PUSH1 0x22 PUSH1 0x4 MSTORE PUSH1 0x24 PUSH0 REVERT JUMPDEST PUSH0 PUSH1 0x2 DUP3 DIV SWAP1 POP PUSH1 0x1 DUP3 AND DUP1 PUSH2 0x4B9 JUMPI PUSH1 0x7F DUP3 AND SWAP2 POP JUMPDEST PUSH1 0x20 DUP3 LT DUP2 SUB PUSH2 0x4CC JUMPI PUSH2 0x4CB PUSH2 0x475 JUMP JUMPDEST JUMPDEST POP SWAP2 SWAP1 POP JUMP JUMPDEST PUSH0 DUP2 SWAP1 POP DUP2 PUSH0 MSTORE PUSH1 0x20 PUSH0 KECCAK256 SWAP1 POP SWAP2 SWAP1 POP JUMP JUMPDEST PUSH0 PUSH1 0x20 PUSH1 0x1F DUP4 ADD DIV SWAP1 POP SWAP2 SWAP1 POP JUMP JUMPDEST PUSH0 DUP3 DUP3 SHL SWAP1 POP SWAP3 SWAP2 POP POP JUMP JUMPDEST PUSH0 PUSH1 0x8 DUP4 MUL PUSH2 0x52E PUSH32 0xFFFFFFFFFFFFFFFFFFFFFFFFFFFFFFFFFFFFFFFFFFFFFFFFFFFFFFFFFFFFFFFF DUP3 PUSH2 0x4F3 JUMP JUMPDEST PUSH2 0x538 DUP7 DUP4 PUSH2 0x4F3 JUMP JUMPDEST SWAP6 POP DUP1 NOT DUP5 AND SWAP4 POP DUP1 DUP7 AND DUP5 OR SWAP3 POP POP POP SWAP4 SWAP3 POP POP POP JUMP JUMPDEST PUSH0 DUP2 SWAP1 POP SWAP2 SWAP1 POP JUMP JUMPDEST PUSH0 PUSH2 0x573 PUSH2 0x56E PUSH2 0x569 DUP5 PUSH2 0x384 JUMP JUMPDEST PUSH2 0x550 JUMP JUMPDEST PUSH2 0x384 JUMP JUMPDEST SWAP1 POP SWAP2 SWAP1 POP JUMP JUMPDEST PUSH0 DUP2 SWAP1 POP SWAP2 SWAP1 POP JUMP JUMPDEST PUSH2 0x58C DUP4 PUSH2 0x559 JUMP JUMPDEST PUSH2 0x5A0 PUSH2 0x598 DUP3 PUSH2 0x57A JUMP JUMPDEST DUP5 DUP5 SLOAD PUSH2 0x4FF JUMP JUMPDEST DUP3 SSTORE POP POP POP POP JUMP JUMPDEST PUSH0 SWAP1 JUMP JUMPDEST PUSH2 0x5B4 PUSH2 0x5A8 JUMP JUMPDEST PUSH2 0x5BF DUP2 DUP5 DUP5 PUSH2 0x583 JUMP JUMPDEST POP POP POP JUMP JUMPDEST JUMPDEST DUP2 DUP2 LT ISZERO PUSH2 0x5E2 JUMPI PUSH2 0x5D7 PUSH0 DUP3 PUSH2 0x5AC JUMP JUMPDEST PUSH1 0x1 DUP2 ADD SWAP1 POP PUSH2 0x5C5 JUMP JUMPDEST POP POP JUMP JUMPDEST PUSH1 0x1F DUP3 GT ISZERO PUSH2 0x627 JUMPI PUSH2 0x5F8 DUP2 PUSH2 0x4D2 JUMP JUMPDEST PUSH2 0x601 DUP5 PUSH2 0x4E4 JUMP JUMPDEST DUP2 ADD PUSH1 0x20 DUP6 LT ISZERO PUSH2 0x610 JUMPI DUP2 SWAP1 POP JUMPDEST PUSH2 0x624 PUSH2 0x61C DUP6 PUSH2 0x4E4 JUMP JUMPDEST DUP4 ADD DUP3 PUSH2 0x5C4 JUMP JUMPDEST POP POP JUMPDEST POP POP POP JUMP JUMPDEST PUSH0 DUP3 DUP3 SHR SWAP1 POP SWAP3 SWAP2 POP POP JUMP JUMPDEST PUSH0 PUSH2 0x647 PUSH0 NOT DUP5 PUSH1 0x8 MUL PUSH2 0x62C JUMP JUMPDEST NOT DUP1 DUP4 AND SWAP2 POP POP SWAP3 SWAP2 POP POP JUMP JUMPDEST PUSH0 PUSH2 0x65F DUP4 DUP4 PUSH2 0x638 JUMP JUMPDEST SWAP2 POP DUP3 PUSH1 0x2 MUL DUP3 OR SWAP1 POP SWAP3 SWAP2 POP POP JUMP JUMPDEST PUSH2 0x678 DUP3 PUSH2 0x46B JUMP JUMPDEST PUSH8 0xFFFFFFFFFFFFFFFF DUP2 GT ISZERO PUSH2 0x691 JUMPI PUSH2 0x690 PUSH2 0x2E3 JUMP JUMPDEST JUMPDEST PUSH2 0x69B DUP3 SLOAD PUSH2 0x4A2 JUMP JUMPDEST PUSH2 0x6A6 DUP3 DUP3 DUP6 PUSH2 0x5E6 JUMP JUMPDEST PUSH0 PUSH1 0x20 SWAP1 POP PUSH1 0x1F DUP4 GT PUSH1 0x1 DUP2 EQ PUSH2 0x6D7 JUMPI PUSH0 DUP5 ISZERO PUSH2 0x6C5 JUMPI DUP3 DUP8 ADD MLOAD SWAP1 POP JUMPDEST PUSH2 0x6CF DUP6 DUP3 PUSH2 0x654 JUMP JUMPDEST DUP7 SSTORE POP PUSH2 0x736 JUMP JUMPDEST PUSH1 0x1F NOT DUP5 AND PUSH2 0x6E5 DUP7 PUSH2 0x4D2 JUMP JUMPDEST PUSH0 JUMPDEST DUP3 DUP2 LT ISZERO PUSH2 0x70C JUMPI DUP5 DUP10 ADD MLOAD DUP3 SSTORE PUSH1 0x1 DUP3 ADD SWAP2 POP PUSH1 0x20 DUP6 ADD SWAP5 POP PUSH1 0x20 DUP2 ADD SWAP1 POP PUSH2 0x6E7 JUMP JUMPDEST DUP7 DUP4 LT ISZERO PUSH2 0x729 JUMPI DUP5 DUP10 ADD MLOAD PUSH2 0x725 PUSH1 0x1F DUP10 AND DUP3 PUSH2 0x638 JUMP JUMPDEST DUP4 SSTORE POP JUMPDEST PUSH1 0x1 PUSH1 0x2 DUP9 MUL ADD DUP9 SSTORE POP POP POP JUMPDEST POP POP POP POP POP POP JUMP JUMPDEST PUSH32 0x4E487B7100000000000000000000000000000000000000000000000000000000 PUSH0 MSTORE PUSH1 0x32 PUSH1 0x4 MSTORE PUSH1 0x24 PUSH0 REVERT INVALID LOG2 PUSH5 0x6970667358 0x22 SLT KECCAK256 0xE5 CODESIZE BYTE GASLIMIT DUP7 PUSH27 0xE4E2738C0DE7283FAA2FAE1DD68D8DA4BCBEFF1D36B76B371C3664 PUSH20 0x6F6C634300081600330000000000000000000000 "
		},
		"gasEstimates": {
			"creation": {
				"codeDepositCost": "390600",
				"executionCost": "428",
				"totalCost": "391028"
			},
			"external": {
				"arrFunc()": "648",
				"constructorFunc()": "infinite",
				"f()": "224",
				"g(uint256[3])": "infinite",
				"initPerson()": "infinite",
				"initPerson2()": "infinite"
			}
		},
		"methodIdentifiers": {
			"arrFunc()": "abb91d18",
			"constructorFunc()": "4e428af1",
			"f()": "26121ff0",
			"g(uint256[3])": "d14d385d",
			"initPerson()": "3632f4fb",
			"initPerson2()": "8473ed1c"
		}
	},
	"abi": [
		{
			"inputs": [],
			"name": "arrFunc",
			"outputs": [],
			"stateMutability": "pure",
			"type": "function"
		},
		{
			"inputs": [],
			"name": "constructorFunc",
			"outputs": [],
			"stateMutability": "nonpayable",
			"type": "function"
		},
		{
			"inputs": [],
			"name": "f",
			"outputs": [],
			"stateMutability": "pure",
			"type": "function"
		},
		{
			"inputs": [
				{
					"internalType": "uint256[3]",
					"name": "_data",
					"type": "uint256[3]"
				}
			],
			"name": "g",
			"outputs": [],
			"stateMutability": "pure",
			"type": "function"
		},
		{
			"inputs": [],
			"name": "initPerson",
			"outputs": [],
			"stateMutability": "nonpayable",
			"type": "function"
		},
		{
			"inputs": [],
			"name": "initPerson2",
			"outputs": [],
			"stateMutability": "nonpayable",
			"type": "function"
		}
	]
}